:100000000C9462000C948A000C948A000C948A0070
:100010000C948A000C948A000C948A000C948A0038
:100020000C948A000C948A000C948A000C948A0028
:100030000C948A000C948A000C948A000C948A0018
:100040000C942F020C948A000C949F020C94790259
:100050000C948A000C948A000C948A000C948A00F8
:100060000C948A000C948A000000000023002600F3
:10007000290000000000240027002A0000000000E2
:10008000250028002B0004040404040404040202D4
:100090000202020203030303030301020408102007
:1000A0004080010204081020010204081020000012
:1000B0000008000201000003040700000000000027
:1000C0000000590411241FBECFEFD8E0DEBFCDBF22
:1000D00011E0A0E0B1E0E2EDF9E002C005900D9280
:1000E000A431B107D9F721E0A4E1B1E001C01D922C
:1000F000AC3BB207E1F710E0C2E6D0E004C02197C4
:10010000FE010E94E104C136D107C9F70E94D10265
:100110000C94E7040C94000080E480937C008091B0
:100120007A00806480937A0080917A0086FDFCCF0B
:1001300080917800909179000895833081F028F4BF
:10014000813099F08230A9F008958730A9F0883085
:10015000C9F08430B1F4809180008F7D03C080911C
:1001600080008F7780938000089584B58F7784BD59
:10017000089584B58F7DFBCF8091B0008F778093F9
:10018000B00008958091B0008F7DF9CF1F93CF9379
:10019000DF93E0EBF0E09491ECE9F0E0D491E8E853
:1001A000F0E0C491CC23B9F0182F992319F0892FCE
:1001B0000E949D00EC2FF0E0EE0FFF1FE458FF4F70
:1001C000A591B4918FB7F894EC91111108C0D09516
:1001D000DE23DC938FBFDF91CF911F910895DE2B3B
:1001E000F8CFCF93DF9390E0FC01E656FF4F2491C8
:1001F0008A579F4FFC0184918823D1F090E0880FAB
:10020000991FFC01EE58FF4FA591B491FC01E458F1
:10021000FF4FC591D49161110EC09FB7F8948C9196
:10022000E22FE0958E238C932881E223E8839FBF01
:10023000DF91CF9108958FB7F894EC91E22BEC9376
:100240008FBFF6CFAF92BF92CF92DF92EF92FF9225
:100250000F931F93CF93DF936C017B018B01040FEE
:10026000151FEB015E01AE18BF08C017D10759F08A
:100270006991D601ED91FC910190F081E02DC601CC
:100280000995892B79F7C501DF91CF911F910F91C6
:10029000FF90EF90DF90CF90BF90AF900895FC015A
:1002A000538D448D252F30E0842F90E0821B930BDB
:1002B000541710F0CF96089501970895FC01918D81
:1002C000828D981761F0A28DAE0FBF2FB11D5D9684
:1002D0008C91928D9F5F9F73928F90E008958FEF26
:1002E0009FEF0895FC01918D828D981731F0828DDA
:1002F000E80FF11D858D90E008958FEF9FEF089531
:10030000FC01918D228D892F90E0805C9F4F821B94
:1003100091098F739927089584E191E00E948001EB
:1003200021E0892B09F420E0822F089580E090E0FD
:10033000892B29F00E948C0181110C9400000895F2
:10034000FC01A48DA80FB92FB11DA35ABF4F2C914A
:10035000848D90E001968F739927848FA689B78941
:100360002C93A089B1898C91837080648C93938D38
:10037000848D981306C00288F389E02D80818F7DDB
:1003800080830895EF92FF920F931F93CF93DF9393
:10039000EC0181E0888F9B8D8C8D98131AC0E889C1
:1003A000F989808185FF15C09FB7F894EE89FF8990
:1003B0006083E889F98980818370806480839FBF2E
:1003C00081E090E0DF91CF911F910F91FF90EF902E
:1003D0000895F62E0B8D10E00F5F1F4F0F7311273E
:1003E000E02E8C8D8E110CC00FB607FCFACFE88979
:1003F000F989808185FFF5CFCE010E94A001F1CF60
:10040000EB8DEC0FFD2FF11DE35AFF4FF0829FB7EC
:10041000F8940B8FEA89FB8980818062CFCFCF93DC
:10042000DF93EC01888D8823B9F0AA89BB89E8891C
:10043000F9898C9185FD03C0808186FD0DC00FB6C2
:1004400007FCF7CF8C9185FFF2CF808185FFEDCF40
:10045000CE010E94A001E9CFDF91CF9108951F92B4
:100460000F920FB60F9211242F933F938F939F9368
:10047000AF93BF938091B8019091B901A091BA0157
:10048000B091BB013091B70123E0230F2D3758F510
:100490000196A11DB11D2093B7018093B8019093DF
:1004A000B901A093BA01B093BB018091B3019091BF
:1004B000B401A091B501B091B6010196A11DB11D85
:1004C0008093B3019093B401A093B501B093B601AA
:1004D000BF91AF919F918F913F912F910F900FBE40
:1004E0000F901F90189526E8230F0296A11DB11DAD
:1004F000D2CF1F920F920FB60F9211242F933F93DA
:100500004F935F936F937F938F939F93AF93BF931B
:10051000EF93FF9384E191E00E94A001FF91EF919E
:10052000BF91AF919F918F917F916F915F914F910B
:100530003F912F910F900FBE0F901F9018951F9213
:100540000F920FB60F9211242F938F939F93EF93D7
:10055000FF93E0912401F09125018081E0912A012F
:10056000F0912B0182FD1BC0908180912D018F5F46
:100570008F7320912E01821741F0E0912D01F0E060
:10058000EC5EFE4F958F80932D01FF91EF919F912F
:100590008F912F910F900FBE0F901F901895808113
:1005A000F4CF789484B5826084BD84B5816084BDC5
:1005B00085B5826085BD85B5816085BD80916E0001
:1005C000816080936E001092810080918100826032
:1005D000809381008091810081608093810080916F
:1005E00080008160809380008091B100846080935E
:1005F000B1008091B00081608093B00080917A005A
:10060000846080937A0080917A00826080937A007F
:1006100080917A00816080937A0080917A0080686E
:1006200080937A001092C100E0912401F09125019D
:1006300082E08083E0912001F09121011082E0911D
:100640002201F09123018FEC808310922C01E09124
:100650002801F091290186E08083E0912601F09144
:100660002701808180618083E0912601F09127013C
:10067000808188608083E0912601F091270180814C
:1006800080688083E0912601F091270180818F7D31
:10069000808360E08EE00E94F10060E084E00E94D0
:1006A000F10061E082E00E94F1009EE9292E90E0D5
:1006B000392E2AE8C22E20E0D22E00EB10E0C0E056
:1006C000D0E0EE24EA9433E0F32EE2EBF0E0849104
:1006D000F101B490F601A490AA2009F461C081113F
:1006E0000E949D00EA2DF0E0EE0FFF1FE859FF4F3A
:1006F000A591B4918C91B82209F452C010920101D5
:1007000010920001F092B201E092B1018FB7F8941B
:100710008090B8019090B901A090BA01B090BB014F
:100720008FBF8FB7F8944090B8015090B901609096
:10073000BA017090BB018FBFFFEF4F1A5F0A6F0ABB
:100740007F0A481859086A087B0881E1481687E241
:1007500058066104710420F58FB7F8944090B801F1
:100760005090B9016090BA017090BB018FBF0E9498
:100770008C0020910001309101012817390724F4E1
:1007800090930101809300012091B1013091B20159
:1007900082179307B4F69093B2018093B101D1CF41
:1007A0000E948C008090B1019090B201092C000C45
:1007B000AA08BB089C01990F440B550B281939094D
:1007C0004A095B09AFEFB0E00E94A5042091000147
:1007D00030910101032E000C440B550B28193909E7
:1007E0004A095B090E948604922E832EA22EB32E04
:1007F00061E082E00E94F100A114B10471F480E094
:100800000E94C600209709F460CF0E948C018823C3
:1008100009F45BCF0E94000058CFEFEFAE16B10491
:1008200011F481E0EDCFF8018491833031F148F487
:100830008130C9F08230E1F0F0E8AF16B1048CF7F6
:10084000DECF873031F1883061F18430A9F78091B3
:100850008000806280938000892D982D90938B007A
:1008600080938A00CFCF84B5806884BD97BCCACFFF
:1008700084B5806284BD98BCC5CF809180008068BB
:1008800080938000892D982D909389008093880013
:10089000B9CF8091B00080688093B0009092B3008F
:1008A000B1CF8091B00080628093B0009092B4008C
:1008B000A9CFE4E1F1E01382128288EE93E0A0E098
:1008C000B0E084839583A683B78386E091E091832B
:1008D000808385EC90E09587848784EC90E097870F
:1008E000868780EC90E0918B808B81EC90E0938BFD
:1008F000828B82EC90E0958B848B86EC90E0978BDA
:10090000868B118E128E138E148E0895052E97FBF2
:100910001EF400940E949D0457FD07D00E94B0046D
:1009200007FC03D04EF40C949D04509540953095EF
:1009300021953F4F4F4F5F4F08959095809570954B
:1009400061957F4F8F4F9F4F08950E94D204A59FBE
:10095000900DB49F900DA49F800D911D11240895BA
:10096000A1E21A2EAA1BBB1BFD010DC0AA1FBB1FB3
:10097000EE1FFF1FA217B307E407F50720F0A21B25
:10098000B30BE40BF50B661F771F881F991F1A9492
:1009900069F760957095809590959B01AC01BD01BC
:1009A000CF010895A29FB001B39FC001A39F700D16
:1009B000811D1124911DB29F700D811D1124911D67
:1009C0000895EE0FFF1F0590F491E02D0994F8941F
:0209D000FFCF57
:1009D200FF0300000000C20122014F010F0280014B
:0409E2005E0172013F
:00000001FF
