:020000040000FA
:100000000C945D000C9485000C9485000C94850084
:100010000C9485000C9485000C9485000C9485004C
:100020000C9485000C9485000C9485000C9485003C
:100030000C9485000C9485000C9485000C9485002C
:100040000C9494010C9485000C9404020C94DE0131
:100050000C9485000C9485000C9485000C9485000C
:100060000C9485000C9485000000000024002700FB
:100070002A0000000000250028002B0004040404CE
:100080000404040402020202020203030303030342
:10009000010204081020408001020408102001021F
:1000A00004081020000000080002010000030407FB
:1000B0000000000000000000400411241FBECFEF2C
:1000C000D8E0DEBFCDBF11E0A0E0B1E0E8EEF9E09E
:1000D00002C005900D92A631B107D9F721E0A6E143
:1000E000B1E001C01D92A43CB207E1F710E0CDE5FC
:1000F000D0E004C02197FE010E94EC04CC35D1076A
:10010000C9F70E9436020C94F2040C940000AF92DE
:10011000BF92CF92DF92EF92FF920F931F93CF93F4
:10012000DF936C017B018B01040F151FEB015E0156
:10013000AE18BF08C017D10759F06991D601ED91EB
:10014000FC910190F081E02DC6010995892B79F78A
:10015000C501DF91CF911F910F91FF90EF90DF903C
:10016000CF90BF90AF900895FC01538D448D252F03
:1001700030E0842F90E0821B930B541710F0CF9641
:10018000089501970895FC01918D828D981761F073
:10019000A28DAE0FBF2FB11D5D968C91928D9F5F8A
:1001A0009F73928F90E008958FEF9FEF0895FC0169
:1001B000918D828D981731F0828DE80FF11D858D1C
:1001C00090E008958FEF9FEF0895FC01918D228DAF
:1001D000892F90E0805C9F4F821B91098F73992734
:1001E00008958CE191E00E94E50021E0892B09F45B
:1001F00020E0822F089580E090E0892B29F00E9472
:10020000F10081110C9400000895FC01A48DA80F49
:10021000B92FB11DA35ABF4F2C91848D90E0019648
:100220008F739927848FA689B7892C93A089B18968
:100230008C91837080648C93938D848D981306C009
:100240000288F389E02D80818F7D80830895EF926D
:10025000FF920F931F93CF93DF93EC0181E0888F80
:100260009B8D8C8D98131AC0E889F989808185FF50
:1002700015C09FB7F894EE89FF896083E889F989F2
:1002800080818370806480839FBF81E090E0DF91F4
:10029000CF911F910F91FF90EF900895F62E0B8D47
:1002A00010E00F5F1F4F0F731127E02E8C8D8E1102
:1002B0000CC00FB607FCFACFE889F989808185FF69
:1002C000F5CFCE010E940501F1CFEB8DEC0FFD2F94
:1002D000F11DE35AFF4FF0829FB7F8940B8FEA8924
:1002E000FB8980818062CFCFCF93DF93EC01888D33
:1002F0008823B9F0AA89BB89E889F9898C9185FDA1
:1003000003C0808186FD0DC00FB607FCF7CF8C912E
:1003100085FFF2CF808185FFEDCFCE010E940501E0
:10032000E9CFDF91CF9108951F920F920FB60F92F0
:1003300011242F933F938F939F93AF93BF938091FB
:10034000C0019091C101A091C201B091C30130914F
:10035000BF0123E0230F2D3758F50196A11DB11DD4
:100360002093BF018093C0019093C101A093C2016B
:10037000B093C3018091BB019091BC01A091BD01DC
:10038000B091BE010196A11DB11D8093BB01909358
:10039000BC01A093BD01B093BE01BF91AF919F91ED
:1003A0008F913F912F910F900FBE0F901F90189536
:1003B00026E8230F0296A11DB11DD2CF1F920F92E6
:1003C0000FB60F9211242F933F934F935F936F9328
:1003D0007F938F939F93AF93BF93EF93FF938CE1A2
:1003E00091E00E940501FF91EF91BF91AF919F9124
:1003F0008F917F916F915F914F913F912F910F90CE
:100400000FBE0F901F9018951F920F920FB60F926C
:1004100011242F938F939F93EF93FF93E0912C01DF
:10042000F0912D018081E0913201F091330182FD44
:100430001BC09081809135018F5F8F7320913601B1
:10044000821741F0E0913501F0E0E45EFE4F958FB8
:1004500080933501FF91EF919F918F912F910F9094
:100460000FBE0F901F9018958081F4CFCF93DF932C
:10047000CDB7DEB7A5970FB6F894DEBF0FBECDBFE0
:10048000789484B5826084BD84B5816084BD85B56F
:10049000826085BD85B5816085BD80916E0081607B
:1004A00080936E0010928100809181008260809321
:1004B0008100809181008160809381008091800023
:1004C0008160809380008091B10084608093B1004E
:1004D0008091B00081608093B00080917A00846048
:1004E00080937A0080917A00826080937A00809174
:1004F0007A00816080937A0080917A00806880938E
:100500007A001092C100E0912C01F0912D0182E05F
:100510008083E0912801F09129011082E0912A0165
:10052000F0912B018FEC808310923401E091300127
:10053000F091310186E08083E0912E01F0912F014E
:10054000808180618083E0912E01F0912F01808174
:1005500088608083E0912E01F0912F018081806876
:100560008083E0912E01F0912F0180818F7D808327
:10057000E3EAF0E02491EFE8F0E084918823C9F009
:1005800090E0880F991FFC01E859FF4F4591549165
:10059000FC01EE58FF4FA591B4919FB7F894FA0172
:1005A00080812095822380838C91E22FE823EC9335
:1005B0009FBF67E9262E60E0362EF1012491E3E823
:1005C000F0E08491882399F090E0880F991FFC0156
:1005D000E859FF4FA591B491FC01EE58FF4F85916A
:1005E00094918FB7F8949C91292B2C938FBF34E86A
:1005F000832E33E0932EA12CB12C4AE0C42ED12CB3
:10060000E12CF12CE6E1F1E0419151916191719180
:100610008091160190911701841B950B90931701FF
:100620008093160105E400937C0080917A00806439
:1006300080937A0080917A0086FDFCCF80917800CB
:1006400090917900AC01092E000C660B770BDF014D
:1006500014974D935D936D937C931397209116019E
:1006600030911701820F931F909317018093160109
:100670002AE231E02E173F0739F62FB7F894409061
:10068000C0015090C1016090C2017090C3012FBFA2
:10069000409118015091190160911A0170911B014C
:1006A00093018201041B150B260B370B0AA31BA316
:1006B0002CA33DA365E070E00E94BD0428E735E06F
:1006C000DB010E94D104A50194010E946D042C5904
:1006D0003F4F4F4F5F4F8AA19BA1ACA1BDA1821795
:1006E0009307A407B507B0F081E090E02091B9012D
:1006F0003091BA01232B11F090E080E09093BA0181
:100700008093B901409218015092190160921A0128
:1007100070921B01EBEAF0E02491F1018491E3E88F
:10072000F0E03491332301F19091B901222359F083
:10073000233009F466C008F059C0213009F467C0BD
:10074000223009F468C0E32FF0E0EE0FFF1FEE58EF
:10075000FF4FA591B4912FB7F894911169C09C9166
:10076000809589238C932FBF4090B9015090BA0196
:10077000052C000C6608770877FE5DC06DE28CE101
:1007800091E00E94270122273327A9012419350966
:100790004609570919A28E010F5D1F4FCA01B90101
:1007A000A70196010E948C04605DD8016E938D01B3
:1007B000211531054105510589F7FD01AB2B09F0E4
:1007C00052C042E050E062E171E08CE191E00E94B1
:1007D000870000E010E0012B09F414CF0E94F10023
:1007E000882309F40FCF0E9400000CCF2730B1F00E
:1007F0002830D1F0243009F0A6CF209180002F7D41
:1008000003C0209180002F77209380009CCF24B5D7
:100810002F7724BD98CF24B52F7DFBCF2091B0003A
:100820002F772093B0008FCF2091B0002F7DF9CF8C
:100830009C91892B97CFA301920119A28E010F5D84
:100840001F4FCA01B901A70196010E948C04605D87
:10085000F80162938F01211531054105510589F792
:10086000309709F4AECF01900020E9F73197AF013E
:10087000401B510BB8018CE191E00E948700A1CF91
:10088000ECE1F1E01382128288EE93E0A0E0B0E0A8
:1008900084839583A683B78384E091E091838083EA
:1008A00085EC90E09587848784EC90E09787868735
:1008B00080EC90E0918B808B81EC90E0938B828B2D
:1008C00082EC90E0958B848B86EC90E0978B868B06
:1008D000118E128E138E148E0895052E97FB1EF422
:1008E00000940E94840457FD07D00E948C0407FCEA
:1008F00003D04EF40C948404509540953095219586
:100900003F4F4F4F5F4F089590958095709561953B
:100910007F4F8F4F9F4F0895A1E21A2EAA1BBB1B3A
:10092000FD010DC0AA1FBB1FEE1FFF1FA217B307BB
:10093000E407F50720F0A21BB30BE40BF50B661FD1
:10094000771F881F991F1A9469F760957095809595
:1009500090959B01AC01BD01CF010895A29FB0010C
:10096000B39FC001A39F700D811D1124911DB29FE3
:10097000700D811D1124911D089597FB072E16F40B
:10098000009407D077FD09D00E94D80407FC05D059
:100990003EF4909581959F4F0895709561957F4F96
:1009A00008950E94AE04B7FF0895821B930B08952B
:1009B000AA1BBB1B51E107C0AA1FBB1FA617B70785
:1009C00010F0A61BB70B881F991F5A95A9F78095A1
:1009D0009095BC01CD010895EE0FFF1F0590F49195
:1009E000E02D0994F894FFCF000000002701870054
:0E09F000B4007401E500C300D7000D0A00003A
:107E0000112484B714BE81FFF0D085E080938100F7
:107E100082E08093C00088E18093C10086E0809377
:107E2000C20080E18093C4008EE0C9D0259A86E02C
:107E300020E33CEF91E0309385002093840096BBD3
:107E4000B09BFECF1D9AA8958150A9F7CC24DD24C4
:107E500088248394B5E0AB2EA1E19A2EF3E0BF2EE7
:107E6000A2D0813461F49FD0082FAFD0023811F036
:107E7000013811F484E001C083E08DD089C08234E0
:107E800011F484E103C0853419F485E0A6D080C0E4
:107E9000853579F488D0E82EFF2485D0082F10E0AE
:107EA000102F00270E291F29000F111F8ED06801E7
:107EB0006FC0863521F484E090D080E0DECF843638
:107EC00009F040C070D06FD0082F6DD080E0C81688
:107ED00080E7D80618F4F601B7BEE895C0E0D1E017
:107EE00062D089930C17E1F7F0E0CF16F0E7DF06D8
:107EF00018F0F601B7BEE89568D007B600FCFDCFD4
:107F0000A601A0E0B1E02C9130E011968C91119780
:107F100090E0982F8827822B932B1296FA010C0160
:107F200087BEE89511244E5F5F4FF1E0A038BF0790
:107F300051F7F601A7BEE89507B600FCFDCF97BE46
:107F4000E89526C08437B1F42ED02DD0F82E2BD052
:107F50003CD0F601EF2C8F010F5F1F4F84911BD097
:107F6000EA94F801C1F70894C11CD11CFA94CF0C13
:107F7000D11C0EC0853739F428D08EE10CD085E9AC
:107F80000AD08FE07ACF813511F488E018D01DD067
:107F900080E101D065CF982F8091C00085FFFCCF94
:107FA0009093C60008958091C00087FFFCCF809118
:107FB000C00084FD01C0A8958091C6000895E0E648
:107FC000F0E098E1908380830895EDDF803219F02E
:107FD00088E0F5DFFFCF84E1DECF1F93182FE3DFCA
:107FE0001150E9F7F2DF1F91089580E0E8DFEE27F6
:047FF000FF270994CA
:027FFE00040479
:00000001FF
