:100000000C9462000C948A000C948A000C948A0070
:100010000C948A000C948A000C948A000C948A0038
:100020000C948A000C948A000C948A000C948A0028
:100030000C948A000C948A000C948A000C948A0018
:100040000C9421020C948A000C9491020C946B0283
:100050000C948A000C948A000C948A000C948A00F8
:100060000C948A000C948A000000000023002600F3
:10007000290000000000240027002A0000000000E2
:10008000250028002B0004040404040404040202D4
:100090000202020203030303030301020408102007
:1000A0004080010204081020010204081020000012
:1000B0000008000201000003040700000000000027
:1000C0000000460411241FBECFEFD8E0DEBFCDBF35
:1000D00011E0A0E0B1E0E6EFF8E002C005900D927B
:1000E000A431B107D9F721E0A4E1B1E001C01D922C
:1000F000A93CB207E1F710E0C2E6D0E004C02197C6
:10010000FE010E947304C136D107C9F70E94C302E1
:100110000C9479040C940000833081F028F4813031
:1001200099F08230A9F008958730A9F08830C9F09D
:100130008430B1F4809180008F7D03C08091800075
:100140008F7780938000089584B58F7784BD08955C
:1001500084B58F7DFBCF8091B0008F778093B00006
:1001600008958091B0008F7DF9CF1F93CF93DF93D7
:10017000282F30E0F901E255FF4F8491F901E6564E
:10018000FF4FD491F901EA57FF4FC491CC23A9F056
:10019000162F81110E948C00EC2FF0E0EE0FFF1F54
:1001A000E458FF4FA591B4918FB7F894EC911111D9
:1001B00008C0D095DE23DC938FBFDF91CF911F91D4
:1001C0000895DE2BF8CFCF93DF9390E0FC01E65645
:1001D000FF4F24918A579F4FFC0184918823D1F0CF
:1001E00090E0880F991FFC01EE58FF4FA591B49144
:1001F000FC01E458FF4FC591D49161110EC09FB727
:10020000F8948C91E22FE0958E238C932881E22341
:10021000E8839FBFDF91CF9108958FB7F894EC9159
:10022000E22BEC938FBFF6CFAF92BF92CF92DF92CB
:10023000EF92FF920F931F93CF93DF936C017B019B
:100240008B01040F151FEB015E01AE18BF08C0172C
:10025000D10759F06991D601ED91FC910190F0819F
:10026000E02DC6010995892B79F7C501DF91CF9162
:100270001F910F91FF90EF90DF90CF90BF90AF90C4
:100280000895FC01538D448D252F30E0842F90E09C
:10029000821B930B541710F0CF9608950197089581
:1002A000FC01918D828D981761F0A28DAE0FBF2F4A
:1002B000B11D5D968C91928D9F5F9F73928F90E0A0
:1002C00008958FEF9FEF0895FC01918D828D98170F
:1002D00031F0828DE80FF11D858D90E008958FEF4C
:1002E0009FEF0895FC01918D228D892F90E0805C15
:1002F0009F4F821B91098F739927089584E191E0A4
:100300000E94720121E0892B09F420E0822F0895D8
:1003100080E090E0892B29F00E947E0181110C94ED
:1003200000000895FC01A48DA80FB92FB11DA35A98
:10033000BF4F2C91848D90E001968F739927848F05
:10034000A689B7892C93A089B1898C918370806428
:100350008C93938D848D981306C00288F389E02DC9
:1003600080818F7D80830895EF92FF920F931F937A
:10037000CF93DF93EC0181E0888F9B8D8C8D981358
:100380001AC0E889F989808185FF15C09FB7F89464
:10039000EE89FF896083E889F989808183708064B0
:1003A00080839FBF81E090E0DF91CF911F910F91FB
:1003B000FF90EF900895F62E0B8D10E00F5F1F4F0A
:1003C0000F731127E02E8C8D8E110CC00FB607FC19
:1003D000FACFE889F989808185FFF5CFCE010E94A7
:1003E0009201F1CFEB8DEC0FFD2FF11DE35AFF4F82
:1003F000F0829FB7F8940B8FEA89FB898081806235
:10040000CFCFCF93DF93EC01888D8823B9F0AA89F1
:10041000BB89E889F9898C9185FD03C0808186FDBF
:100420000DC00FB607FCF7CF8C9185FFF2CF80810E
:1004300085FFEDCFCE010E949201E9CFDF91CF91F0
:1004400008951F920F920FB60F9211242F933F938E
:100450008F939F93AF93BF938091C5019091C601F5
:10046000A091C701B091C8013091C40123E0230FCE
:100470002D3758F50196A11DB11D2093C40180931D
:10048000C5019093C601A093C701B093C8018091A4
:10049000C0019091C101A091C201B091C301019628
:1004A000A11DB11D8093C0019093C101A093C20111
:1004B000B093C301BF91AF919F918F913F912F91C5
:1004C0000F900FBE0F901F90189526E8230F0296ED
:1004D000A11DB11DD2CF1F920F920FB60F92112402
:1004E0002F933F934F935F936F937F938F939F933C
:1004F000AF93BF93EF93FF9384E191E00E94920149
:10050000FF91EF91BF91AF919F918F917F916F91EB
:100510005F914F913F912F910F900FBE0F901F90C1
:1005200018951F920F920FB60F9211242F938F934D
:100530009F93EF93FF93E0912401F0912501808137
:10054000E0912A01F0912B0182FD1BC090818091E6
:100550002D018F5F8F7320912E01821741F0E09162
:100560002D01F0E0EC5EFE4F958F80932D01FF9101
:10057000EF919F918F912F910F900FBE0F901F9031
:1005800018958081F4CF789484B5826084BD84B559
:10059000816084BD85B5826085BD85B5816085BD7E
:1005A00080916E00816080936E0010928100809136
:1005B00081008260809381008091810081608093BE
:1005C0008100809180008160809380008091B100E3
:1005D00084608093B1008091B00081608093B0000E
:1005E00080917A00846080937A0080917A008260A2
:1005F00080937A0080917A00816080937A00809164
:100600007A00806880937A001092C100E091240102
:10061000F091250182E08083E0912001F091210199
:100620001082E0912201F09123018FEC80831092DF
:100630002C01E0912801F091290186E08083E0916E
:100640002601F0912701808180618083E09126015D
:10065000F0912701808188608083E0912601F091EC
:100660002701808180688083E0912601F091270135
:1006700080818F7D808361E08DE00E94E30061E0F6
:100680008BE00E94E30061E08CE00E94E30060E008
:1006900082E00E94E30000EB10E09CE9E92E90E08C
:1006A000F92E28E8C22E20E0D22E7724739430E071
:1006B000A32E30E0B32E48EE842E43E0942EF801B2
:1006C0008491F701C491F601D491DD2309F4ADC002
:1006D00081110E948C00ED2FF0E0EE0FFF1FE85912
:1006E000FF4FA591B4918C91C82309F49EC02FB7F8
:1006F000F8948091C5019091C601A091C701B09175
:10070000C8012FBF8093B5019093B601A093B701A4
:10071000B093B8016091BD018CE00E94B5008FB725
:10072000F8944091C5015091C6016091C701709144
:10073000C8018FBF8091B9019091BA01A091BB010E
:10074000B091BC011A012B01281A390A4A0A5B0A26
:100750008091000190910101092E000CAA0BBB0BA6
:10076000281639064A065B0668F08091BD01872588
:100770008093BD014093B9015093BA016093BB01CE
:100780007093BC01C091BE01D091BF016C2F8DE070
:100790000E94B50061E0CD2B09F060E08BE00E9483
:1007A000B500A114B10409F48ACF0E947E01882308
:1007B00009F485CF0E94000082CF1A012B01281A6C
:1007C000390A4A0A5B0AD201C1018D3D9540A10553
:1007D000B105E0F0809100019091010180599140B4
:1007E0008833EFEF9E0769F0909301018093000139
:1007F0004093B1015093B2016093B3017093B4017F
:1008000089CF9092010180920001F2CF81E090E0C7
:100810002091BE013091BF01232B11F090E080E0C8
:100820009093BF018093BE01E3CF8091B10190917D
:10083000B201A091B301B091B4014091B5015091C2
:10084000B6016091B7017091B8011C012D01F2E36E
:100850002F0E311C411C511C4215530564057505B2
:1008600008F0ABCF2FB7F8948091C5019091C601E5
:10087000A091C701B091C8012FBF8093B10190939F
:10088000B201A093B301B093B40144CFE4E1F1E02D
:100890001382128288EE93E0A0E0B0E08483958317
:1008A000A683B78386E091E09183808385EC90E016
:1008B0009587848784EC90E09787868780EC90E02A
:1008C000918B808B81EC90E0938B828B82EC90E01B
:1008D000958B848B86EC90E0978B868B118E128E95
:1008E000138E148E0895EE0FFF1F0590F491E02DE6
:0608F0000994F894FFCF0B
:1008F600E80300000000B401140141010102720185
:040906005001640137
:00000001FF
