:020000040000FA
:100000000C9476040C949E040C949E040C949E0410
:100010000C949E040C949E040C949E040C949E04D8
:100020000C949E040C949E040C949E040C949E04C8
:100030000C949E040C949E040C949E040C949E04B8
:100040000C94F4100C949E040C9464110C943E11C6
:100050000C949E040C949E040C949E040C949E0498
:100060000C9496110C949E040000000023002600BE
:10007000290000000000240027002A0000000000E2
:10008000250028002B0004040404040404040202D4
:100090000202020203030303030301020408102007
:1000A0004080010204081020010204081020000012
:1000B0000008000201000003040700000000000027
:1000C00000005F00030305050405061614FDFC0E81
:1000D000FC0EFE026D05BA080B200600602C012103
:1000E0000FC4253423391C2C2265C9212201220981
:1000F000A5644621E14500231B8B616429114BC493
:1001000012D961729849C412D961729849C412B166
:100110004408242149A65B1987846B924829520A16
:100120005582B643E81033464AA14AA8129195E396
:100130009020002529EEE17B35938A2641594828F5
:100140000B456511A9287D2487C6C6225134240B8E
:100150008A64C1982CA6148C4EE330002624D02546
:100160008C4B078AE420991C2493832672581D3AED
:10017000ABD984135270561D52A7B4DA21741B01F7
:100180002707A2642E7118281105A23327128D4467
:100190002399DE66B2995000291005A2332194CD2F
:1001A00064337D1A89466A002A10E7E045354A9A89
:1001B00044442349649434022B154A215C2987C89E
:1001C000217288F07030CA2172881C22042C0BE442
:1001D000602B23394446D9002D0765E034F1102EF9
:1001E0000A84202C23394424002F0FC6213CA9184F
:1001F000540C2A0615838A003013C9255C379C8C61
:100200006492997F9BC84493E10C00310BC7295C31
:10021000271C15F79F0E3215C9255C47134D66B68E
:10022000896C3C1D4FA762D5C3A1003317C9255C5B
:1002300047134D66B6896C2C9C83E41399DB4434D8
:100240002B013416C9255C1F174F1923B3D028364C
:100250008A4D829383743C2D3518C9255C73889C24
:10026000E29038240EB1C5E6E389CC6D229A950060
:100270003616C9255C575A91D924E3C988B2E66D70
:10028000229B8C8433003711C9255CF1509E8AE58E
:1002900062B97875BC11003815C9255C379449A43A
:1002A000D4E2456434858E556A4D46033917C92515
:1002B0005C37144D669299B7C98434194F6436C9B6
:1002C0006854033A0D242534233944C4924344022C
:1002D0003B0F846533233944C4924364940D003C3E
:1002E000114A215C0F111339D32174081D4287086C
:1002F0003D0BC9A45CF140473C1C083E124A215CFE
:100300002187D02174081D4226729643003F12C9EE
:1003100021545712DD6C13D958772431952C0440A1
:1003200027CF21847B1ECBE4A090AC2411299164BB
:1003300022924C449189246A2289D244249A10E55D
:10034000A0D8587C08024120CE1D741F07CB8173B2
:10035000201D1499834272486C1E1B47A7076178C1
:10036000181FC927D402421ECC21747198CD48C3EE
:10037000D170341CCD6687E0D274329D4C27D3C92E
:1003800070729001431DCC2174590AB18C25E33A57
:10039000840EA183E6A039680E89CC23E3184D5A58
:1003A00003441FCE218471980E69E3D178349FCC29
:1003B00027F3C97C329FCC27E3D17834241D8600F3
:1003C000451FCB216C71A00C2753C92C1499852291
:1003D00023E171249C0567A1C83832950C0F0746AC
:1003E0001ECB216C71A00C2753C92C149985222394
:1003F000E171249C0567C139640E995B014721CDE9
:10040000217C598A914863D158328744E690C81CB0
:1004100036874D0FE1D174349D91A8A50800481E80
:10042000CE218451AC8C47E3D178341E8D4787D2DE
:1004300078341E8D47E3D178349E140B490AC525C4
:100440004C5119ED7F294A13CA1D645B9EEF936CD2
:10045000429A9026C2916848044B1ECE2184512BAB
:100460004D8543E94C3C924FE4103BE43E218FA87C
:1004700033E29036A5D40C4C10CA2164519EEFAFE4
:1004800091696428991D0C4D2DD1219C612E916993
:10049000555A641899856691596816998546A159E7
:1004A0006C129AC526A1598C360BCE66C1D9681834
:1004B0009CD462054E21CE218441AD5067D42035B5
:1004C000584CA10543A4608C120C16A3C428313CDF
:1004D0001B8BCA21004F1DCE21846926D1C6A3F1F2
:1004E000640EB143EC103BC40EB1439647E3198947
:1004F0006C04501ECC21747110CE4843CA9032A4B3
:100500000C2933D2213807CD4173D01C3487D40154
:1005100051284E22836926D1C6A3F1640EB143EC63
:10052000103BC40EB1D026A39168269951CA76A873
:100530001C3A8983EAB01100521FCD218471A00DAD
:1005400049D3D174341D0D6787E86C381BCE68C35E
:10055000D970369C1827005316CA21644709AD0C80
:1005600025D308D97A355BCBD5D3245402541CCB80
:10057000216C7130ADCD6433D92C3887CC2173C850
:100580001C3287CC2173C8BC06551ECE218451ACC9
:100590008C47F3D83C368FCD63F3D83C368FCD6390
:1005A000F3D83C38941B015622CF1D7461AC906780
:1005B000F320353C0D4FE3B3386416074DE2B049E4
:1005C0001C3887CEC171781C005730D41D9C613116
:1005D0005568C4D9701AA4D1C2335A78460B532235
:1005E000943864129AC42193D0240EA1D161C339E6
:1005F0006C380786E3D0701800581FCF218C63AA8F
:1006000011A734F9480EB1C3E8503AAC0EB34344D5
:1006100064E174481B538A06591FCD217C61A350A5
:1006200065D3204D3A0B53E2903A680E9BC3E6B077
:10063000396C0E9B436E005A19CC216CF1102E4F71
:10064000C294289D0E9943E8AC1172645C3E1C0272
:100650005B0A04A63361D2FF13015C12C8214C214E
:10066000968BE562B9582E968BE562015D0A04A26D
:100670003341D2FF93015E0E08A14D2796126922E5
:100680002D42A2005F0749604BF140600885A43EFF
:10069000215B1461122A215C739A4D8463DA646DC4
:1006A000329B8C9806621FCC1D644107CD4173D0EC
:1006B0001C34074D88B4D174329D4C27D3C9744281
:1006C0001B496A00630F292154571A19CB5B233346
:1006D000190900641DCC216C4F07CD4173D01C3427
:1006E000A48C6694E9643A994EA693E96846A410EE
:1006F00065122A215C471C4D86C6C3413E8E0C659F
:100700002500660EC8213C4793EC3AB44DF7B1067C
:10071000671EEB215B0F924346C6D14C2813CA4695
:1007200043A31C74081E22D289583294DD00681E2F
:10073000CC216C4107CD4173D01C34074D6A24D2C3
:1007400070341C0D47C3D170349C940A690CC521C8
:1007500034335A0792F64B016A0F471633B91D8D91
:10076000B83F5A2C2212006B1DCC216C4107CD41A1
:1007700073D01C34078D4A33E1283C115F27C41124
:100780006D46A9186C0AC5213441DAFFA5006D1821
:100790003321A441A9D84825D27069B8345C1A2EF7
:1007A0000D97862BA5066E152C216C41A99148C387
:1007B000D170341C0D47C3D170522A6F0F2B2164A6
:1007C000579C4DA6BE4E66C31A00701CAC1D63310B
:1007D00022D246D3C974329D4C27D3096D3421CE21
:1007E0004173D01C5207711CAC21634712CD28D332
:1007F000C974329D4C27D3D18C489983E6A03968BF
:100800000E29720F28214C4111512423C974C71A93
:100810000073122921544509C924C388F16A2D4A5D
:100820002225007411A72144178E0A67A6E19E2293
:10083000A310050075152C216C51220D47C3D170F2
:10084000341C0D47C3115B850076142A1D4C519A48
:100850000C43C3D828388A92E972881000771B307D
:100860001D7C51294D66C3D06C181B918223529474
:100870004426D1857288500878122B2164616193D7
:1008800051A4F579554293512806791BAB21635148
:100890009B4C43D3D82C388B4EC293F81C3207455F
:1008A00065D1497C0E7A0E29215471A0D588DC8A45
:1008B000C403017B0E05A2332712EDA4281BED26ED
:1008C000147C07C2315CF1037D0F05A23321948DA6
:1008D000B60945A23DA9017E0B6A2465B572888CD4
:1008E000460000000004FFFF0000B11211241FBEEB
:1008F000CFEFD8E0DEBFCDBF11E0A0E0B1E0E0ED8A
:10090000FAE202C005900D92AA37B107D9F723E0A9
:10091000AAE7B1E001C01D92AB3BB207E1F714E0DA
:10092000C6E7D4E004C02197FE010E945915C537DF
:10093000D107C9F70E94A6130C9466150C94000009
:10094000662329F06A3019F0862F90E008958FEF22
:100950009FEF0895AF92BF92CF92DF92EF92FF92F6
:100960000F93CF93DF93EC01DA017901942F977005
:10097000E1E0F0E09F01092E01C0220F0A94EAF79E
:10098000522F6E018AE8C80ED11CF601808140E02A
:10099000823018F4422F813049F15D01F8EFAF2227
:1009A000E8ADF9AD28813981D90150968C918A9DA5
:1009B00090018B9D300D1124620F731FDF01A60F74
:1009C000B71F01111AC0EA0EFB1E8C91842B8527DC
:1009D0008D93AE15BF05C9F7DF91CF910F91FF90B1
:1009E000EF90DF90CF90BF90AF90089550E0D5CFBB
:1009F000440F550FE114F10479F33C91342B352762
:100A00003C939F5F9770E1E0EE1AF1089111F0CFEF
:100A10002CAD3DADA20FB31FF6018081823028F4CA
:100A2000813009F051E041E0E5CF51E0E3CF80E0D3
:100A3000089590E080E008959B01DC011896ED9107
:100A4000FC9141E067E10994833081F028F4813022
:100A500099F08230A9F008958730A9F08830C9F064
:100A60008430B1F4809180008F7D03C0809180003C
:100A70008F7780938000089584B58F7784BD089523
:100A800084B58F7DFBCF8091B0008F778093B000CD
:100A900008958091B0008F7DF9CF1F93CF93DF939E
:100AA000282F30E0F901E255FF4F8491F901E65615
:100AB000FF4FD491F901EA57FF4FC491CC23A9F01D
:100AC000162F81110E942405EC2FF0E0EE0FFF1F7E
:100AD000E458FF4FA591B4918FB7F894EC911111A0
:100AE00008C0D095DE23DC938FBFDF91CF911F919B
:100AF0000895DE2BF8CFCF93DF9390E0FC01E6560C
:100B0000FF4F24918A579F4FFC0184918823C9F09D
:100B100090E0880F991FFC01EE58FF4FA591B4910A
:100B2000FC01E458FF4FC591D49161110DC09FB7EE
:100B3000F8948C91209582238C9388812823288394
:100B40009FBFDF91CF910895623051F49FB7F89421
:100B50003C91822F809583238C93E8812E2BEFCFBD
:100B60008FB7F894EC912E2B2C938FBFEACF3FB721
:100B7000F89480911C0290911D02A0911E02B091E8
:100B80001F0226B5A89B05C02F3F19F00196A11D95
:100B9000B11D3FBFBA2FA92F982F8827BC01CD01C7
:100BA000620F711D811D911D42E0660F771F881F26
:100BB000991F4A95D1F708958F929F92AF92BF9255
:100BC000CF92DF92EF92FF926B017C010E94B705FA
:100BD0004B015C01C114D104E104F104B9F00E949D
:100BE000B705681979098A099B09683E7340810530
:100BF000910580F321E0C21AD108E108F10888EEDE
:100C0000880E83E0981EA11CB11CE4CFFF90EF90EA
:100C1000DF90CF90BF90AF909F908F900895AF924C
:100C2000BF92CF92DF92EF92FF920F931F93CF93D9
:100C3000DF936C017B018B01040F151FEB015E013B
:100C4000AE18BF08C017D10759F06991D601ED91D0
:100C5000FC910190F081E02DC6010995892B79F76F
:100C6000C501DF91CF911F910F91FF90EF90DF9021
:100C7000CF90BF90AF900895FC01538D448D252FE8
:100C800030E0842F90E0821B930B541710F0CF9626
:100C9000089501970895FC01918D828D981761F058
:100CA000A28DAE0FBF2FB11D5D968C91928D9F5F6F
:100CB0009F73928F90E008958FEF9FEF0895FC014E
:100CC000918D828D981731F0828DE80FF11D858D01
:100CD00090E008958FEF9FEF0895FC01918D228D94
:100CE000892F90E0805C9F4F821B91098F73992719
:100CF000089580E292E00E946D0621E0892B09F4BC
:100D000020E0822F089580E090E0892B29F00E9456
:100D1000790681110C9400000895FC01A48DA80FA0
:100D2000B92FB11DA35ABF4F2C91848D90E001962D
:100D30008F739927848FA689B7892C93A089B1894D
:100D40008C91837080648C93938D848D981306C0EE
:100D50000288F389E02D80818F7D80830895EF9252
:100D6000FF920F931F93CF93DF93EC0181E0888F65
:100D70009B8D8C8D98131AC0E889F989808185FF35
:100D800015C09FB7F894EE89FF896083E889F989D7
:100D900080818370806480839FBF81E090E0DF91D9
:100DA000CF911F910F91FF90EF900895F62E0B8D2C
:100DB00010E00F5F1F4F0F731127E02E8C8D8E11E7
:100DC0000CC00FB607FCFACFE889F989808185FF4E
:100DD000F5CFCE010E948D06F1CFEB8DEC0FFD2FEC
:100DE000F11DE35AFF4FF0829FB7F8940B8FEA8909
:100DF000FB8980818062CFCFCF93DF93EC01888D18
:100E00008823B9F0AA89BB89E889F9898C9185FD85
:100E100003C0808186FD0DC00FB607FCF7CF8C9113
:100E200085FFF2CF808185FFEDCFCE010E948D0638
:100E3000E9CFDF91CF9108952091CD01260F33277F
:100E4000331F21323105ECF42091F101FC0190E0D7
:100E500080E0243069F082E00895A091CD012191D5
:100E6000AC0143555E4FA40FB52FB11D2C930196D5
:100E7000861798F38091CD01680F6093CD0180E0D3
:100E8000089581E0089508958FEF9FEF08958FEF03
:100E90009FEF08958091A60190E091958195910929
:100EA0000895CF93DF93CB01EA01642F0E941C07C2
:100EB000CE01DF91CF910895CF93DF931F92CDB7ED
:100EC000DEB7698361E0CE0101960E941C0781E0D4
:100ED00090E00F90DF91CF910895DC011A96ED918B
:100EE000FC9130E020E009941F93CF93DF93EC0155
:100EF000A881B981683109F49BC038F4643109F4E0
:100F000089C0673149F080E00EC0693109F4D4C06E
:100F10006032C9F76AE488C01C968C9180FD3FC09E
:100F2000411105C081E0DF91CF911F910895F90132
:100F300081919F014150DFB7F894A091A401B09135
:100F4000A501C091A301E091A101F091A2017091CE
:100F5000A00160919F0181110EC08C918C238C9314
:100F600088E09081972B9083908196239083815085
:100F7000C1F7DFBFD5CF10919E0198E05C9187FF4C
:100F80000CC0512B5C935081572B5083880F50819C
:100F900056235083915091F7ECCF5C23F3CF442339
:100FA00009F4C0CFF90181919F014150DFB7F89456
:100FB000A091A401B091A501C091A301E091A1016C
:100FC000F091A2016091A00170919F0181110EC06A
:100FD0008C918C238C9388E09081972390839081CF
:100FE000962B90838150C1F7DFBFD9CF10919E011E
:100FF00098E05C9187FF0CC0512B5C935081572384
:101000005083880F5081562B5083915091F7ECCF2D
:101010005C23F3CF11964C9169E40E946D07E8813F
:10102000F9814485417060E4CE010E946D077ACF5A
:101030004C9169E40E946D07A881B981EA85FB851E
:1010400030E020E012964C916CE2CE0109958E8D35
:1010500090E0FC01EA57FF4FE491F0E0EE0FFF1F34
:10106000E458FF4F259134913093A2012093A101C0
:10107000FC01E656FF4FE491E093A001E095E09378
:101080009F018F8D90E0FC01EA57FF4FE491F0E063
:10109000EE0FFF1FE458FF4F259134913093A501C7
:1010A0002093A401FC01E656FF4FE491E0939E01DA
:1010B000E095E093A30136CFEA85FB8530E020E0A0
:1010C00013964C916CE20995E881F981418169E4BC
:1010D000ABCFDC011696ED91FC9130E020E040E0D2
:1010E00069E10994DC011696ED91FC9130E020E075
:1010F00040E068E109949A01DC011696ED91FC91BB
:10110000462F67E10994EF92FF920F931F93CF93BD
:10111000DF931F92CDB7DEB77C018B01D8016C91B4
:10112000673129F150F46531A0F40F90DF91CF9130
:101130001F910F91FF90EF9008956A3118F16E3F63
:10114000A1F7F8014181498369E2C7010E946D0757
:101150000BC0F80141814983D7011696ED91FC91AE
:1011600030E020E0C70109950E5F1F4FD7CFF8018F
:1011700081818983AE014F5F5F4F61E0C7010E94AB
:101180007B08F2CF0F5F1F4FD7011696ED91FC91B0
:1011900030E020E040E0C7010995C0CF462FDC01D8
:1011A0001696ED91FC9130E020E066E10994462F1F
:1011B000DC011696ED91FC9130E020E065E10994A8
:1011C000CF92DF92FF920F931F93CF93DF93EC01A7
:1011D000142F69016B3009F461C030F46930B9F043
:1011E0006A3019F180E019C06E3009F466C06F30C2
:1011F00009F473C06D30B1F7411157C067E071E079
:101200000E948308E881F98182898C8B05C08DE377
:1012100091E0998388831C8A81E0DF91CF911F91AF
:101220000F91FF90DF90CF900895EA85FB8530E025
:1012300020E040E068E20995EE81FF8130E020E0A7
:1012400040E064E1CE01099541E06BE4CE010E94EB
:101250006D07E881F981448169E2CE010E946D0742
:1012600040E06BE4CE010E946D07E881F981448182
:1012700069E2CE010E946D0741E06BE4CE010E945D
:101280006D07E881F981458169E2CE010E946D0711
:101290006CE171E0CE010E948308BECF65E171E090
:1012A0004423C1F36EE071E0F5CF60E071E00E948D
:1012B0008308E881F9818389A8CF0E94720861E8D8
:1012C000CE010E94D708612F66956695CE010E94D7
:1012D000CE08CE010E9469089FCF0E947208F601D5
:1012E0000381000F000F000F8C89080F602F62959B
:1012F0006F706061CE010E94D708602F6F70CE01C1
:101300000E94D708F6016481606BCE010E94D70865
:10131000F601F280FF0CFF0CFF0CC080D1802F2D56
:10132000200F3327331F253831051CF084E8F82EB1
:10133000F01AA6016F2DCE010E947B081150C9F74B
:10134000C8CFCF93DF931F92CDB7DEB76983BE01BD
:101350006F5F7F4F0E941C050F90DF91CF91089522
:10136000462FDC011896ED91FC9130E020E060E220
:101370000994EF92FF920F931F93CF93DF938C0109
:10138000C62FD42F7901673130F46531B8F4643158
:1013900031F080E01BC0673101F16A31D0F7D8012C
:1013A0001896ED91FC9197014D2F6C2FC801DF919C
:1013B000CF911F910F91FF90EF90099460E00E94F0
:1013C000B0096D2FC8010E94A10981E0DF91CF9182
:1013D0001F910F91FF90EF90089561E00E94B00976
:1013E000DECF0F93FC01E05CFF4F0190F081E02D18
:1013F0004E1B5F0BDC01D496ED91FC9109950F918A
:101400000895CF93DF93FC01A081B18182AD90E07C
:101410009C0143E0220F331F4A95E1F737AF26AF17
:1014200050962C91509748E0249F9001112435AF9D
:1014300024AF23AD30E0B90153E0660F771F5A9512
:10144000E1F7EF01C05CDF4F7983688351964C91DF
:101450005197E901C80FD91F50E04C175D0718F4E8
:10146000CA01821B930BEF01CE5BDF4F7983688348
:10147000229623E0880F991F2A95E1F7860F971F80
:1014800099838883229654968D919C915597998340
:101490008883E85BFF4F56968D919C919183808362
:1014A000DF91CF9108950F931F93FC01E25BFF4FF3
:1014B0000190F081E02DDC01A05BBF4F0D90BC914D
:1014C000A02D4A175B0740F4E017F10748F0041716
:1014D000150730F080E019C0E017F107C0F3FACF2C
:1014E000FC01E65BFF4F40815181845B9F4FFC0113
:1014F000808191816817790758F481E0421753077A
:1015000020F081E02617370728F71F910F910895E3
:1015100042175307B0F3DECF2F923F924F925F9264
:101520006F927F928F929F92AF92BF92CF92DF92F3
:10153000EF92FF920F931F93CF93DF93CDB7DEB758
:101540002A970FB6F894DEBF0FBECDBF9A87898762
:10155000865B9F4F9A838983FC0111821082E98503
:10156000FA85EA5BFF4F4080518029853A85245BEC
:101570003F4F3C832B83F90151824082E985FA85F4
:10158000EE5BFF4F2080318029853A85225B3F4FFB
:101590003E832D83F90131822082E985FA85EC5B57
:1015A000FF4F6080718029853A85205B3F4F3887E7
:1015B0002F83F90171826082E985FA85E85AFF4F2D
:1015C000E080F180E985FA85EC5AFF4FA080B18078
:1015D000E985FA85EA5AFF4FC080D180E985FA850E
:1015E000EE5AFF4F8080918087019501A601B401DA
:1015F00089859A850E94530A29853A852C573F4F41
:101600003A87298781111BC0F90110822A960FB6EB
:10161000F894DEBF0FBECDBFDF91CF911F910F9128
:10162000FF90EF90DF90CF90BF90AF909F908F9002
:101630007F906F905F904F903F902F90089581E042
:10164000E985FA8580838114910421F0E981FA818A
:1016500091828082A414B50420F4EB81FC81B182D4
:10166000A0822C143D0420F4ED81FE81D182C08241
:10167000E614F70458F6EF81F885F182E082C6CFD0
:101680000F93CF93DF93E02FDC01AC57BF4FFC915A
:10169000FF2309F460C02115310509F45CC0223034
:1016A000310538F0023009F04AC06F5F7F4F621B8E
:1016B000730B0E2F0170E0FD52C0FC01E25BFF4F87
:1016C0000190F081E02D4E175F0708F444C0FC0143
:1016D000E05BFF4F0190F081E02D4E175F07D8F5DA
:1016E000FC01E45BFF4F0190F081E02DDC01A65B83
:1016F000BF4F0D90BC91A02D260F371F261737071F
:1017000038F56E177F0718F59F0121503109A21790
:10171000B30708F56A177B0708F4BD012E173F07CA
:1017200008F4F901E61BF70BEC01AEA9BFA914966A
:101730000D90BC91A02D9F01FD0109950CC00330B7
:1017400009F0B7CF4F5F5F4F421B530BB2CFBD01C4
:101750006E177F07E0F2DF91CF910F910895FC01A2
:10176000E65BFF4F0190F081E02D6E177F0798F345
:10177000FC01E45BFF4F0190F081E02D6E177F07C5
:1017800050F7FC01E05BFF4F0190F081E02DDC01A0
:10179000A25BBF4F0D90BC91A02D240F351F2417C5
:1017A0003507A8F44E175F0788F49F0121503109CF
:1017B000A217B30780F64A175B0708F4AD012E178E
:1017C0003F0708F4F901E41BF50BAECFAD014E174E
:1017D0005F0708F6EDCF213069F038F0223079F05C
:1017E000840F911D47FD9A950895860F911D67FD01
:1017F0009A950895841B910947FD93950895861B3A
:10180000910967FD93950895213069F038F02230F1
:1018100079F0861B910967FD93950895840F911DBA
:1018200047FD9A950895860F911D67FD9A95089535
:10183000841B910947FD939508953F924F925F92C3
:101840006F927F928F929F92AF92BF92CF92DF92D0
:10185000EF92FF920F931F93CF93DF937C01162F8C
:10186000442EEC01C25ADF4F5E806F806C018AE823
:10187000C80ED11C78847518312E711608F4372CD7
:101880008C809D800E85202F462D652D8A819B8121
:101890000E94EB0B5C01202F462D652DC4010E9498
:1018A000040CAC01442079F08C85F6018083232D53
:1018B00030E0B501C7010E94400B171548F0171919
:1018C0006394512CD7CF8B858111F7CF8D85EDCFC8
:1018D000150D1E836F82DF91CF911F910F91FF90A5
:1018E000EF90DF90CF90BF90AF909F908F907F90C0
:1018F0006F905F904F903F900895DC011A964C9145
:101900001A97ED91FC911197249130E0042E02C0BA
:10191000359527950A94E2F7842F860F883068F072
:1019200031961196FC93EE93E49198E0941B01C0DC
:10193000EE0F9A95EAF72E2B88501A968C938FEF1C
:101940009FEF01C0880F6A95EAF78095822308957A
:10195000FC01E60FF11D849190E0982F88273196C5
:10196000E4918E0F911D0895CF93DF93EC016BAF3F
:10197000EEA9FFA90190F081E02D0995EEA9FFA93C
:101980000280F381E02DCE01DF91CF910994AF92D7
:10199000BF92CF92DF92EF92FF920F931F93CF935C
:1019A000DF9300D000D01F92CDB7DEB78C01DC01F1
:1019B000DA96AC90DA97DB96EC90DB97ED91FC91A0
:1019C000B188FE2CD12CC12CD801ED91FC9111973E
:1019D0008089D8962D913C911C82FD828B83B8E042
:1019E0008B9FC00111248C9DA0018D9D500D9C9D4D
:1019F000500D1124240F351F3A832983D8011496E2
:101A0000ED91FC919E012F5F3F4F41E06FE0C801D7
:101A10000995F3948F2D8E198A1528F4BFEFCB1AF0
:101A2000DB0AFB1488F20F900F900F900F900F902D
:101A3000DF91CF911F910F91FF90EF90DF90CF90AA
:101A4000BF90AF9008950F931F93CF93DF93EC0156
:101A5000862F642F8C3208F03AC08A3208F060C0BA
:101A6000883209F44BC0893209F460C0803408F42C
:101A700075C0982F9F73FE01E90FF11D868D8F3F72
:101A800009F44EC0903108F436C0282F30E0F90137
:101A9000E255FF4F8491F901E656FF4F0491F90199
:101AA000EA57FF4F1491112379F081110E94240508
:101AB000E12FF0E0EE0FFF1FE859FF4FA591B49121
:101AC000EC910E2381E009F480E0898F29C08D32EA
:101AD00099F108F4CBCF94EB980F923008F0C6CF71
:101AE0008F73C80FD11D8E8D411134C061E00E94EB
:101AF0007B0560E08E8D0E944D0512C08E01025E56
:101B00001F4FD0E0F80181918F018F3F31F061E0EC
:101B1000D03108F062E00E947B05DF5FD63191F79B
:101B200081E0DF91CF911F910F91089570E090E0D7
:101B300080E00E94DC05F4CF85E090E0433010F0B7
:101B400082E090E0880F991F880F991F05970197F1
:101B5000F1F7E6CF62E00E947B05E2CF80E0E1CFC3
:101B6000CF92DF92EF92FF920F931F93CF93DF9369
:101B70006C01EB017B01E40EF51E10E000E0CE15D8
:101B8000DF0561F06991D601ED91FC910190F08142
:101B9000E02DC6010995080F191FF1CFC801DF918B
:101BA000CF911F910F91FF90EF90DF90CF9008950C
:101BB0002F923F924F925F926F927F928F929F925D
:101BC000AF92BF92CF92DF92EF92FF920F931F934B
:101BD000CF93DF93CDB7DEB728970FB6F894DEBF6B
:101BE0000FBECDBF7C016C0124E0C20ED11CFC01F4
:101BF000E057FF4F0190F081E02DC60109958C015F
:101C00008E3F9F4F08F061C0370184E9680E711C58
:101C1000F3010190F081E02DFD83EC835701F2E99F
:101C2000AF0EB11CF50180809180970120593F4F84
:101C30003B832A83F9018081813009F470C008F464
:101C40005FC0823009F476C0833009F482C0F701A6
:101C5000EC59FF4F9182808232962C813D813183F5
:101C6000208338978081918147969D838C830F3F95
:101C7000110511F008F020C1B6960136110530F4B7
:101C80000134110558F0F701EE57FF4F8081918123
:101C90002C813D81280F391F3D832C838C819D81B0
:101CA0000196FC01249121115FC090E080E0EA815F
:101CB000FB812081213009F4C1C108F4B7C1223071
:101CC00009F4BEC1233009F4C3C181E090E0289635
:101CD0000FB6F894DEBF0FBECDBFDF91CF911F913D
:101CE0000F91FF90EF90DF90CF90BF90AF909F90BB
:101CF0008F907F906F905F904F903F902F900895BE
:101D0000F701E05AFF4F0190F081E02DC6010995DF
:101D10002C813D81280F391F3D832C8398CFF701FB
:101D2000E05AFF4F0190F081E02DC6010995881A15
:101D3000990A8DCFF701E05AFF4F0190F081E02D15
:101D4000C6010995EC81FD81E81BF90BFD83EC834D
:101D50007ECFF701E05AFF4F0190F081E02DC601E0
:101D60000995880E991E73CFEC81FD81249120176F
:101D7000110609F09AC0CF010296009709F495CF99
:101D8000F701EE59FF4FF887EF8391838083128626
:101D9000739660818F8198850E947D0CEF81F88514
:101DA0008087F701EA58FF4F60818F8198850E94F4
:101DB0007D0C582EEF81F8858187970122573F4F80
:101DC0003D832C83F9019081EF81F885948781E030
:101DD000911180E0EF81F8858587F701E958FF4F81
:101DE0008080682D8F8198850E947D0C382EF701A8
:101DF000E858FF4F2080622D8F8198850E947D0CCE
:101E0000982EF701E758FF4F1081612F8F81988539
:101E10000E947D0C9FEF910F01E010E0980101C03E
:101E2000220F9A95EAF7821B8E83EF81F885408412
:101E300014140CF0C4C08A94C80101C0880F8A949D
:101E4000EAF7381AF685F983950C2A94C80101C07F
:101E5000880F2A94EAF7282E29182F2F422D632D58
:101E6000EF81F885828193810E94EB0B4C01EF8119
:101E7000F885938382832981422D632D8481958106
:101E80000E94040CEF81F88595838483F981F130F9
:101E900009F49AC008F44EC0F23009F4A4C0F3303B
:101EA00009F4B5C0BC0194014FC0FC0184912C81A0
:101EB0003D81280F311DF0CEF701EA57FF4F808199
:101EC0009181EC81FD81E80FF91FFD83EC834F01C7
:101ED00060E0C4010E94A80C2C813D81280F391FAD
:101EE0003D832C8362E0C4010E94A80C34E0830E81
:101EF000911C8017910760F3EC81FD81849190E043
:101F0000982F88273196E4918E2B009709F4CDCE37
:101F10000817190721F48C819D8103962ECFEC813F
:101F2000FD813296E4912C813D812E0F311D3D8340
:101F30002C83E2CF9401240D311D47FC3A95BC015E
:101F4000650D711D57FC7A958B01AC01B401C6017A
:101F50000E94530A882399F1EF81F885168217822F
:101F60004701F3E78F0E911C24E7E20EF11CF40108
:101F700060818F8198850E947D0C082FF701608118
:101F80008F8198850E947D0C182F40E0602FC6013C
:101F90000E941D0C41E0612FC6010E941D0C61E0F2
:101FA0008F8198850E947D0C8111EFCFEF81F8859C
:101FB00087818515E4F28485EC81FD818083FE8133
:101FC0008F2FFF0F990B73CE0519110957FC13952D
:101FD00094012F5F3F4FBC01640D711D47FC7A9542
:101FE000800E911EB1CFA8014419510947FC5395A9
:101FF00094012F5F3F4F0519110957FC1395BC0140
:102000006F5F7F4F800F911F840E951E9DCF9401AF
:10201000250D311D57FC3A950419110947FC1395FC
:10202000BC016F5F7F4F800F911F8ECFF501208124
:102030003181820F931F9183808347CEF301F7CFC5
:10204000F50120813181281B390B318320833DCE5E
:10205000F301F7CF089590E080E008951F93CF93A8
:10206000DF9385ED8093BC008091A9019091AA0136
:10207000A091AB01B091AC010796A11DB11D23E069
:10208000B695A795979587952A95D1F72091BC008D
:1020900024FD03C01092F10152C04091A90150915A
:1020A000AA016091AB017091AC01452B462B472BE7
:1020B00069F30097A105B10541F02AE22A95F1F7ED
:1020C00000C00197A109B109E1CF8091A801C1E049
:1020D000C093A701882399F1D091B8001091BA005C
:1020E0008091BC008A7B8093BC0060E082E10E940A
:1020F0004D0560E083E10E944D051092F101C0930F
:10210000F3011092F20161E082E10E944D0561E06D
:1021100083E10E944D058091B9008E7F8093B900C4
:102120008091B9008D7F8093B90088E48093B800D6
:1021300085E48093BC001093BA00D093B800DF917F
:10214000CF911F910895FC01A081B18150962C91EF
:1021500082AD38E0839FC0011124289FA001299FF0
:10216000500D112470E060E080AD91AD0C945F15CE
:102170001F93CF93DF93EC010E94C70C1BAD8AAD78
:10218000180FE881F9818189181768F0EC81FD81C9
:1021900030E020E040E060E1CE01099580E0DF9191
:1021A000CF911F910895FE01E557FF4F808188234D
:1021B00019F0CE010E94A310612FCE010E94B40C31
:1021C00081E0EDCFCF93DF93EC01FC01E557FF4FAA
:1021D0008081882319F0CE010E94A31060E0CE0117
:1021E000DF91CF910C94B40C1F920F920FB60F9207
:1021F00011242F933F938F939F93AF93BF9380911D
:10220000180290911902A0911A02B0911B0230910C
:10221000170223E0230F2D3758F50196A11DB11D9C
:10222000209317028093180290931902A0931A0228
:10223000B0931B0280911C0290911D02A0911E027E
:10224000B0911F020196A11DB11D80931C029093B5
:102250001D02A0931E02B0931F02BF91AF919F91E8
:102260008F913F912F910F900FBE0F901F90189557
:1022700026E8230F0296A11DB11DD2CF1F920F9207
:102280000FB60F9211242F933F934F935F936F9349
:102290007F938F939F93AF93BF93EF93FF9380E2CE
:1022A00092E00E948D06FF91EF91BF91AF919F91B7
:1022B0008F917F916F915F914F913F912F910F90EF
:1022C0000FBE0F901F9018951F920F920FB60F928E
:1022D00011242F938F939F93EF93FF93E0913002FC
:1022E000F09131028081E0913602F091370282FD57
:1022F0001BC09081809139028F5F8F7320913A02C9
:10230000821741F0E0913902F0E0E05EFD4F958FD9
:1023100080933902FF91EF919F918F912F910F90B0
:102320000FBE0F901F9018958081F4CF1F920F92CF
:102330000FB60F9211242F933F934F935F936F9398
:102340007F938F939F93AF93BF93EF93FF9380916E
:10235000B900887F803609F44AC0F0F5883209F464
:10236000A5C018F5803109F499C0B8F4882309F4A0
:10237000F5C0883009F492C0FF91EF91BF91AF9101
:102380009F918F917F916F915F914F913F912F918D
:102390000F900FBE0F901F901895883109F486C0DA
:1023A000803251F78093F00114C0803409F49BC04F
:1023B00040F48033B9F38833F9F68093F00185EC6B
:1023C000AEC0803509F483C0883509F494C08834E0
:1023D00099F60E942E10D0CF883909F48AC038F5BA
:1023E000883729F050F4883611F0803729F683E0D9
:1023F0008093F1011092EF0155C0883809F479C03B
:10240000803919F0803809F0B7CF8091EF01803220
:1024100008F06FC0E091EF0181E08E0F8093EF0133
:102420008091BB00F0E0E153FE4F80833BC0803BD6
:1024300039F0D0F4803A09F477C0883A09F09CCF9B
:1024400084E08093F1011092CE011092CD01F0E072
:10245000E0E009958091CD0181110FC081E080936A
:10246000CD011092AD0109C0803C09F4A8CF883C91
:1024700009F4A5CF883B09F07FCFE091CE0181E040
:102480008E0F8093CE01F0E0E355FE4F8081809364
:10249000BB009091CE018091CD0129C080911602A0
:1024A0008093BB0085EC8093BC0066CF90911502B1
:1024B00080911402981758F5E091150281E08E0F73
:1024C00080931502F0E0EC50FE4F8081E9CFE0915F
:1024D000150281E08E0F809315028091BB00F0E021
:1024E000EC50FE4F80839091150280911402981752
:1024F000C8F285E8D8CFE091150281E08E0F809375
:1025000015028091BB00F0E0EC50FE4F808380917B
:10251000F30181115ECF81E08093F20184EA809320
:10252000BC001092F10128CF85EC8093BC00109282
:10253000F1018091EF01803230F4E091EF01F0E0A1
:10254000E153FE4F10826091EF0170E08FEC91E05B
:10255000F0E0E0E009951092EF010ECF1092F0014B
:1025600038CF109223021092220288EE93E0A0E06E
:10257000B0E08093240290932502A0932602B093AA
:10258000270289E591E0909321028093200285EC57
:1025900090E090932D0280932C0284EC90E0909335
:1025A0002F0280932E0280EC90E090933102809372
:1025B000300281EC90E0909333028093320282ECFF
:1025C00090E0909335028093340286EC90E09093F3
:1025D0003702809336021092390210923A0210921A
:1025E0003B0210923C02109228031092270380EACB
:1025F00094E09093B6038093B5031092B8031092C1
:10260000B7031092BA031092B903109241038BE6FC
:1026100091E0909326038093250310922A03109251
:10262000290310923E031092350310923603109244
:102630003703109238038FEF80933F038093430357
:10264000E7E4F3E08DE593E02FEF21938E179F07EA
:10265000E1F780EE98E090932E0380932D0389EBB1
:1026600099E09093300380932F0384E797E0909351
:1026700032038093310383E29DE09093340380938F
:10268000330330E020E040E069E089E293E00E941B
:10269000E00810928403109283038AEA94E09093F6
:1026A0005E0380935D038DEB92E0909362038093D1
:1026B000610381E08093630310926403109292039C
:1026C0001092B2031092AE038093B3038093B403CD
:1026D00083E791E09093600380935F0389E293E046
:1026E0000E94010A10927C0310927B0310928003D7
:1026F00010927F038FEF9FEF90937E0380937D0373
:102700009093820380938103E0915F03F0916003D3
:102710000280F381E02D89E293E0099589E195E05B
:1027200090938603809385031092950382E08093B3
:10273000470383E08093480386E08093500385E05D
:102740008093510384E0809352030895CF93DF93E5
:10275000CDB7DEB7A1970FB6F894DEBF0FBECDBFE1
:10276000789484B5826084BD84B5816084BD85B56C
:10277000826085BD85B5816085BD80916E00816078
:1027800080936E001092810080918100826080931E
:102790008100809181008160809381008091800020
:1027A0008160809380008091B10084608093B1004B
:1027B0008091B00081608093B00080917A00846045
:1027C00080937A0080917A00826080937A00809171
:1027D0007A00816080937A0080917A00806880938B
:1027E0007A001092C100E0913002F091310282E053
:1027F0008083E0912C02F0912D021082E0912E0254
:10280000F0912F028FEC808310923802E091340215
:10281000F091350286E08083E0913202F09133023C
:10282000808180618083E0913202F0913302808167
:1028300088608083E0913202F09133028081806869
:102840008083E0913202F091330280818F7D80831A
:10285000E0912D03F0912E0330E020E040E06AE0AB
:1028600089E293E0099589E293E00E94E21089E20F
:1028700093E00E94B8108111FACF60E089E293E002
:102880000E94B40CE0912D03F0912E0330E020E083
:1028900040E06BE089E293E0099560E083E10E940B
:1028A0007B0562ECE62E60E0F62E8E01005E1F4F87
:1028B00089E293E00E94E21088EC282E80E0382E16
:1028C00099EC492E90E0592E2AEC622E20E0722ECF
:1028D0003BECC32E30E0D32E4CECA42E40E0B42EC3
:1028E0005DEC852E50E0952E8091830390918403BA
:1028F000825C904009F48FC0F0928403E0928303DD
:10290000E2ECF0E0849180939603E3ECF0E08491B4
:1029100080939703E4ECF0E0849180939803E5ECD6
:10292000F0E0849180939903E6ECF0E08491809349
:102930009A03E7ECF0E0849180939B03F10184918A
:1029400080939C03F201849180939D03F301849111
:1029500080939E03F601849180939F03F5018491F7
:102960008093A003F40184918093A103EEECF0E046
:10297000E491E093A203EFECF0E0E491E093A30391
:10298000E0EDF0E0E491E093A403E1EDF0E0E49108
:10299000E093A503E2EDF0E0E491E093A60361E1AA
:1029A00082EC90E00E94A80C9093A8038093A70368
:1029B00063E182EC90E00E94A80C9093AA038093BC
:1029C000A90365E182EC90E00E94A80C9093AC030F
:1029D0008093AB038091830390918403892BD9F07A
:1029E0008091A3038093AF034091A4034093B0036D
:1029F0009091AE03992379F0913009F03FC0909106
:102A0000A503891714F49093AF038091A60384174C
:102A100014F48093B0031092B8031092B7038EE1C0
:102A200090E09093BA038093B90319A280E388A33E
:102A3000F80101900020E9F73197AF01401B510BDD
:102A4000B80185E293E00E94B00D89E293E00E9414
:102A5000B810811149CF68EE73E080E090E00E94E9
:102A6000DC0580E090E0892B09F422CF0E947906F2
:102A7000882309F41ACF0E94000017CF3091A003D9
:102A80002091A203082E000C990B622F022E000C3D
:102A9000770B630F711D37FD7A95861797071CF426
:102AA000320F3093AF0324170CF0B5CF2093B0034F
:102AB000B2CFEE0FFF1F0590F491E02D0994DC01D9
:102AC00001C06D9341505040E0F70895F894FFCF56
:102AD0001815A015C819FF1815A115C019FF18154C
:102AE000AE15A519FF1815A415AF19FF1815E21595
:102AF000AE154015A115C015A615A2152F15271541
:102B000081160E15FA159015AE15A519FF000105D1
:102B10000501060C4B00093D0000041E280D0800AD
:102B20001E6600400000000000AF060F063C06FCD9
:102B3000066D064B065F0600000000D80DB00D2B99
:0A2B4000102A10010A8C0AF10900A6
:107E0000112484B714BE81FFF0D085E080938100F7
:107E100082E08093C00088E18093C10086E0809377
:107E2000C20080E18093C4008EE0C9D0259A86E02C
:107E300020E33CEF91E0309385002093840096BBD3
:107E4000B09BFECF1D9AA8958150A9F7CC24DD24C4
:107E500088248394B5E0AB2EA1E19A2EF3E0BF2EE7
:107E6000A2D0813461F49FD0082FAFD0023811F036
:107E7000013811F484E001C083E08DD089C08234E0
:107E800011F484E103C0853419F485E0A6D080C0E4
:107E9000853579F488D0E82EFF2485D0082F10E0AE
:107EA000102F00270E291F29000F111F8ED06801E7
:107EB0006FC0863521F484E090D080E0DECF843638
:107EC00009F040C070D06FD0082F6DD080E0C81688
:107ED00080E7D80618F4F601B7BEE895C0E0D1E017
:107EE00062D089930C17E1F7F0E0CF16F0E7DF06D8
:107EF00018F0F601B7BEE89568D007B600FCFDCFD4
:107F0000A601A0E0B1E02C9130E011968C91119780
:107F100090E0982F8827822B932B1296FA010C0160
:107F200087BEE89511244E5F5F4FF1E0A038BF0790
:107F300051F7F601A7BEE89507B600FCFDCF97BE46
:107F4000E89526C08437B1F42ED02DD0F82E2BD052
:107F50003CD0F601EF2C8F010F5F1F4F84911BD097
:107F6000EA94F801C1F70894C11CD11CFA94CF0C13
:107F7000D11C0EC0853739F428D08EE10CD085E9AC
:107F80000AD08FE07ACF813511F488E018D01DD067
:107F900080E101D065CF982F8091C00085FFFCCF94
:107FA0009093C60008958091C00087FFFCCF809118
:107FB000C00084FD01C0A8958091C6000895E0E648
:107FC000F0E098E1908380830895EDDF803219F02E
:107FD00088E0F5DFFFCF84E1DECF1F93182FE3DFCA
:107FE0001150E9F7F2DF1F91089580E0E8DFEE27F6
:047FF000FF270994CA
:027FFE00040479
:00000001FF
