:100000000C945D000C9485000C9485000C94850084
:100010000C9485000C9485000C9485000C9485004C
:100020000C9485000C9485000C9485000C940704B6
:100030000C9485000C9485000C9485000C9485002C
:100040000C9465030C9485000C94D5030C94AF03B9
:100050000C9485000C9485000C9485000C9485000C
:100060000C9485000C94850000000008000201003B
:100070000003040700000000000000000000000072
:10008000250028002B0000000000240027002A0083
:10009000040404040404040402020202020203032E
:1000A0000303030301020408102040800102040836
:1000B0001020010204081020C30411241FBECFEF3A
:1000C000D8E0DEBFCDBF11E0A0E0B1E0EEE1FEE0A0
:1000D00002C005900D92A232B107D9F721E0A2E249
:1000E000B1E001C01D92A63FB207E1F710E0CDE5F7
:1000F000D0E004C02197FE010E940707CC35D1074C
:10010000C9F70E943A050C940D070C940000CF9398
:10011000DF93DC018C918C3008F06FC0CB01FB01C8
:10012000EC55FF4F249180579F4FFC018491882309
:1001300099F090E0880F991FFC01EA57FF4FC59195
:10014000D491FC01E458FF4F859194918FB7F894B6
:10015000E881E22BE8838FBF8C91282F30E0F901F2
:10016000EE0FFF1FE20FF31FE553FE4F962F9F7315
:100170006081607C692B60839BEC11969C93119746
:1001800094E112969C9312972CE0622F0E94FB063A
:10019000829FB001112430E020E0AB01420F531FD9
:1001A000FA01EE0FFF1FE40FF51FE553FE4F90819C
:1001B00096FD16C02F5F3F4F2C30310571F781112E
:1001C0000FC01092800082E0809381001092850021
:1001D00010928400B19A80916F00826080936F00CA
:1001E000EC918E2F90E0FC01EE0FFF1FE80FF91F3E
:1001F000E553FE4F8081806480838C91DF91CF91A5
:10020000089590E0FC01E859FF4F2491FC01EC5562
:10021000FF4F3491FC01E057FF4FE491EE23C9F00A
:10022000222339F0233001F1A8F4213019F12230D2
:1002300029F1F0E0EE0FFF1FE458FF4FA591B491B4
:100240008FB7F894EC91611126C030953E233C9312
:100250008FBF08952730A9F02830C9F0243049F71E
:10026000809180008F7D03C0809180008F77809384
:100270008000DFCF84B58F7784BDDBCF84B58F7DE1
:10028000FBCF8091B0008F778093B000D2CF809168
:10029000B0008F7DF9CF3E2BDACF3FB7F894809135
:1002A0002A0190912B01A0912C01B0912D0126B52E
:1002B000A89B05C02F3F19F00196A11DB11D3FBF9E
:1002C000BA2FA92F982F8827BC01CD01620F711D6D
:1002D000811D911D42E0660F771F881F991F4A9567
:1002E000D1F70895AF92BF92CF92DF92EF92FF9233
:1002F0000F931F93CF93DF936C017B018B01040F4E
:10030000151FEB015E01AE18BF08C017D10759F0E9
:100310006991D601ED91FC910190F081E02DC6012B
:100320000995892B79F7C501DF91CF911F910F9125
:10033000FF90EF90DF90CF90BF90AF900895FC01B9
:10034000538D448D252F30E0842F90E0821B930B3A
:10035000541710F0CF96089501970895FC01918DE0
:10036000828D981761F0A28DAE0FBF2FB11D5D96E3
:100370008C91928D9F5F9F73928F90E008958FEF85
:100380009FEF0895FC01918D828D981731F0828D39
:10039000E80FF11D858D90E008958FEF9FEF089590
:1003A000FC01918D228D892F90E0805C9F4F821BF4
:1003B00091098F73992708958EE291E00E94D001F0
:1003C00021E0892B09F420E0822F089580E090E05D
:1003D000892B29F00E94DC0181110C940000089502
:1003E000FC01A48DA80FB92FB11DA35ABF4F2C91AA
:1003F000848D90E001968F739927848FA689B789A1
:100400002C93A089B1898C91837080648C93938D97
:10041000848D981306C00288F389E02D80818F7D3A
:1004200080830895EF92FF920F931F93CF93DF93F2
:10043000EC0181E0888F9B8D8C8D98131AC0E88920
:10044000F989808185FF15C09FB7F894EE89FF89EF
:100450006083E889F98980818370806480839FBF8D
:1004600081E090E0DF91CF911F910F91FF90EF908D
:100470000895F62E0B8D10E00F5F1F4F0F7311279D
:10048000E02E8C8D8E110CC00FB607FCFACFE889D8
:10049000F989808185FFF5CFCE010E94F001F1CF6F
:1004A000EB8DEC0FFD2FF11DE35AFF4FF0829FB74C
:1004B000F8940B8FEA89FB8980818062CFCFCF933C
:1004C000DF93EC01888D8823B9F0AA89BB89E8897C
:1004D000F9898C9185FD03C0808186FD0DC00FB622
:1004E00007FCF7CF8C9185FFF2CF808185FFEDCFA0
:1004F000CE010E94F001E9CFDF91CF9108958F9254
:100500009F92AF92BF92CF92DF92EF92FF92FC0147
:10051000828158E5C52E52E0D52EC81AD10887FD34
:10052000D394CC0CDD1CCC0CDD1C0D2C000CEE0887
:10053000FF08818178E8872E912C881A910887FD21
:100540009394880C991C880C991C092C000CAA08FF
:10055000BB0880818F3FD1F190E0FC01EE0FFF1FBF
:10056000E80FF91FE553FE4F8181928133E0880F38
:10057000991F3A95E1F7B0E0A0E044E0B595A79562
:10058000979587954A95D1F702969C012F5F3F4F2B
:10059000032E000C440B550B281939094A095B0935
:1005A000A4EBB0E00E94B706A7019601281939090B
:1005B0004A095B090E949806C901FF90EF90DF90FD
:1005C000CF90BF90AF909F908F90089590E080E083
:1005D000DCCFCF92DF92EF92FF92CF93DF93EC01CB
:1005E000603282E07807CCF5653B710514F064EB6E
:1005F00070E0898128E830E0281B310987FD3395B8
:10060000220F331F220F331F6901330FEE08FF083B
:100610008A8128E532E0281B310987FD3395220FB6
:10062000331F220F331F032E000C440B550B2C19C4
:100630003D094E095F09DB0177FF02C0B0E0A0E091
:100640000E94C20624EB30E040E050E00E94980691
:10065000C20ED31EE41EF51EB601E881EC3070F523
:10066000298188E890E0821B910927FD9395880FE6
:10067000991F880F991F681779077CF02A8188E5F0
:1006800092E0821B910927FD9395880F991F880F8F
:10069000991F681779070CF4CB010297880F991FEF
:1006A0004FB7F8942E2F30E0F901EE0FFF1FE20F45
:1006B000F31FE553FE4F928381834FBFDF91CF91AC
:1006C000FF90EF90DF90CF9008951F920F920FB69A
:1006D0000F9211242F933F938F939F93AF93BF93C8
:1006E0008091260190912701A0912801B0912901C4
:1006F0003091250123E0230F2D3758F50196A11DD8
:10070000B11D209325018093260190932701A0938A
:100710002801B093290180912A0190912B01A09189
:100720002C01B0912D010196A11DB11D80932A01CC
:1007300090932B01A0932C01B0932D01BF91AF9109
:100740009F918F913F912F910F900FBE0F901F900F
:10075000189526E8230F0296A11DB11DD2CF1F9236
:100760000F920FB60F9211242F933F934F935F93E5
:100770006F937F938F939F93AF93BF93EF93FF9369
:100780008EE291E00E94F001FF91EF91BF91AF9155
:100790009F918F917F916F915F914F913F912F9199
:1007A0000F900FBE0F901F9018951F920F920FB6CB
:1007B0000F9211242F938F939F93EF93FF93E091C8
:1007C0003E01F0913F018081E0914401F0914501AB
:1007D00082FD1BC09081809147018F5F8F732091B4
:1007E0004801821741F0E0914701F0E0E25DFE4FE1
:1007F000958F80934701FF91EF919F918F912F915A
:100800000F900FBE0F901F9018958081F4CF1F920C
:100810000F920FB60F9211242F933F934F935F9334
:100820006F937F938F939F93AF93BF93CF93DF93F8
:10083000EF93FF9380912201C091EF01D0E087FFF9
:1008400024C01092850010928400809122018F5F55
:100850008093220180912201082E000C990B8C17A5
:100860009D0724F4809122018C30C4F18091840092
:1008700090918500049680349C4908F47AC0809158
:10088000840090918500049676C080912201082E04
:10089000000C990B8C179D07C4F6E09122018E2F56
:1008A000EE0F990BFC01EE0FFF1FE80FF91FE55348
:1008B000FE4F808186FFC9CFE09122018E2FEE0F7F
:1008C000990BFC01EE0FFF1FE80FF91FE553FE4FD8
:1008D000808160E08F730E940101B7CF2091840076
:1008E00030918500E09122018E2FEE0F990BFC01D3
:1008F000EE0FFF1FE80FF91FE553FE4F8181928134
:10090000820F931F9093890080938800E0912201C9
:100910008E2FEE0F990BFC01EE0FFF1FE80FF91F52
:10092000E553FE4F808186FF11C0E09122018E2F9A
:10093000EE0F990BFC01EE0FFF1FE80FF91FE553B7
:10094000FE4F808161E08F730E940101FF91EF9162
:10095000DF91CF91BF91AF919F918F917F916F91D7
:100960005F914F913F912F910F900FBE0F901F906D
:10097000189580E49CE990938900809388008FEF1C
:1009800080932201E3CF109231011092300188EE62
:1009900093E0A0E0B0E08093320190933301A09304
:1009A0003401B093350184E191E090932F0180935D
:1009B0002E0185EC90E090933B0180933A0184EC0A
:1009C00090E090933D0180933C0180EC90E0909307
:1009D0003F0180933E0181EC90E090934101809330
:1009E000400182EC90E0909343018093420186ECB9
:1009F00090E090934501809344011092470110923A
:100A000048011092490110924A018091EF018C3007
:100A100048F591E0980F9093EF018093F30190E0F7
:100A2000FC01EE0FFF1FE80FF91FE553FE4F88EBA7
:100A30009BE0928381838091EF018C30B8F491E048
:100A4000980F9093EF018093F00190E0FC01EE0F7E
:100A5000FF1FE80FF91FE553FE4F88EB9BE09283E1
:100A6000818308958FEF8093F301E5CF8FEF80931B
:100A7000F0010895789484B5826084BD84B5816066
:100A800084BD85B5826085BD85B5816085BD809159
:100A90006E00816080936E001092810080918100D1
:100AA00082608093810080918100816080938100C9
:100AB000809180008160809380008091B10084608B
:100AC0008093B1008091B00081608093B0008091EC
:100AD0007A00846080937A0080917A0082608093AB
:100AE0007A0080917A00816080937A0080917A0008
:100AF000806880937A001092C100E0913E01F091ED
:100B00003F0182E08083E0913A01F0913B01108245
:100B1000E0913C01F0913D018FEC80831092460101
:100B2000E0914201F091430186E08083E091400131
:100B3000F0914101808180618083E0914001F091DA
:100B40004101808188608083E0914001F091410102
:100B5000808180688083E0914001F0914101808133
:100B60008F7D808364E070E083EF91E00E948700D6
:100B700062E070E080EF91E00E94870020E131E0C8
:100B8000C0E0D1E08881249690E0FC01EC55FF4F55
:100B9000449180579F4FFC0184918823C9F090E0D5
:100BA000880F991FFC01EA57FF4FA591B491FC01F2
:100BB000E458FF4F659174919FB7F8948C91E42F9E
:100BC000E0958E238C93DB018C91E823EC939FBFFF
:100BD0002C173D07B9F620E0E22E20E0F22E95E238
:100BE000C92E91E0D92E9601E0E0F1E080813496A3
:100BF0008E3008F08E508770806480937C008091E6
:100C00007A00806480937A0080917A0086FDFCCF20
:100C10004091780050917900052E000C660B770BFF
:100C2000D9014D935D936D937D939D01EC17FD0765
:100C3000E9F6009123011091240130E020E090E0DA
:100C400080E0F60141915191619171916F014901EB
:100C5000032E000CAA08BB0884169506A606B70644
:100C600010F49A018C0101968430910551F710938C
:100C700024010093230183EF91E00E947F025C0135
:100C800080EF91E00E947F026C010115110561F077
:100C90000130110559F00330110509F446C001E097
:100CA00010E061E070E004C00FEF1FEF6FEF7FEF27
:100CB0006A0D7B1D83EF91E00E94E902B601600F8F
:100CC000711F80EF91E00E94E9020E944D012B010B
:100CD0003C0184E1882E912CA12CB12C0E944D0165
:100CE0006419750986099709683E73408105910565
:100CF000A8F3F1E08F1A9108A108B10828EE420E7E
:100D000023E0521E611C711C81149104A104B104E2
:100D100029F7E114F10409F462CF0E94DC01882371
:100D200009F45DCF0E9400005ACF0FEF1FEFB9CF3B
:100D3000052E97FB1EF400940E94AF0657FD07D0C6
:100D40000E94CA0607FC03D04EF40C94AF065095DF
:100D50004095309521953F4F4F4F5F4F08959095A7
:100D60008095709561957F4F8F4F9F4F08950E949A
:100D7000EC06A59F900DB49F900DA49F800D911D32
:100D800011240895B7FF0C94B7060E94B706821B82
:100D9000930B0895A1E21A2EAA1BBB1BFD010DC0E7
:100DA000AA1FBB1FEE1FFF1FA217B307E407F5071B
:100DB00020F0A21BB30BE40BF50B661F771F881FF7
:100DC000991F1A9469F760957095809590959B018D
:100DD000AC01BD01CF010895A29FB001B39FC00136
:100DE000A39F700D811D1124911DB29F700D811D57
:100DF0001124911D0895991B79E004C0991F96173D
:100E000008F0961B881F7A95C9F780950895EE0F14
:0E0E1000FF1F0590F491E02D0994F894FFCF98
:100E1E000E0000000F000000100000001100000086
:100E2E0000000000120272019F015F02D001AE01AC
:020E3E00C201EF
:00000001FF
